:100000000C945D000C9485000C9485000C94850084
:100010000C9485000C9485000C9485000C9485004C
:100020000C9485000C9485000C9485000C9485003C
:100030000C9485000C9485000C9485000C9485002C
:100040000C94A8020C9485000C9418030C94F202F2
:100050000C9485000C9485000C9485000C9485000C
:100060000C9485000C9485000000000024002700FB
:100070002A0000000000250028002B0004040404CE
:100080000404040402020202020203030303030342
:10009000010204081020408001020408102001021F
:1000A00004081020000000080002010000030407FB
:1000B0000000000000000000BA0411241FBECFEFB2
:1000C000D8E0DEBFCDBF21E0A2E1B1E001C01D92CA
:1000D000A83BB207E1F711E0A0E0B1E0EEEDF9E0F6
:1000E00002C005900D92A231B107D9F710E0CDE51D
:1000F000D0E004C02197FE010E94E704CC35D1076F
:10010000C9F70E944A030C94ED040C940000EDEA38
:10011000F0E02491E9E9F0E09491E5E8F0E0E49181
:10012000EE23C9F0222339F0233001F1A8F4213065
:1001300019F1223029F1F0E0EE0FFF1FEE58FF4FCA
:10014000A591B4912FB7F894EC91811126C09095A8
:100150009E239C932FBF08952730A9F02830C9F023
:10016000243049F7209180002F7D03C0209180002A
:100170002F7720938000DFCF24B52F7724BDDBCFEE
:1001800024B52F7DFBCF2091B0002F772093B000B6
:10019000D2CF2091B0002F7DF9CF9E2BDACF3FB781
:1001A000F8948091130190911401A0911501B091E0
:1001B000160126B5A89B05C02F3F19F00196A11D79
:1001C000B11D3FBFBA2FA92F982F8827BC01CD01A1
:1001D000620F711D811D911D42E0660F771F881F00
:1001E000991F4A95D1F708958F929F92AF92BF922F
:1001F000CF92DF92EF92FF924B015C010E94CF0001
:100200006B017C010E94CF006C197D098E099F094A
:10021000683E734081059105A8F321E0821A910898
:10022000A108B10888EEC80E83E0D81EE11CF11CBD
:1002300081149104A104B10429F7FF90EF90DF909D
:10024000CF90BF90AF909F908F900895AF92BF9244
:10025000CF92DF92EF92FF920F931F93CF93DF9392
:100260006C017B018B01040F151FEB015E01AE18C1
:10027000BF08C017D10759F06991D601ED91FC91E3
:100280000190F081E02DC6010995892B79F7C50110
:10029000DF91CF911F910F91FF90EF90DF90CF9062
:1002A000BF90AF900895FC01538D448D252F30E011
:1002B000842F90E0821B930B541710F0CF96089573
:1002C00001970895FC01918D828D981761F0A28DA0
:1002D000AE0FBF2FB11D5D968C91928D9F5F9F7366
:1002E000928F90E008958FEF9FEF0895EF92FF9225
:1002F0000F931F93CF93DF937B018C01D0E0C0E07D
:100300002FB7F8948091170190911801A0911901CD
:10031000B0911A012FBF8093230190932401A093E1
:100320002501B09326018BE191E00E94620197FFC5
:100330002CC02FB7F8948091170190911801A091CB
:100340001901B0911A012FBF40912301509124014E
:100350006091250170912601841B950BA60BB70BAC
:1003600040911F0150912001609121017091220163
:1003700084179507A607B707B0F2CE01DF91CF919A
:100380001F910F91FF90EF900895F80181938F01D5
:100390002196EC16FD0609F0B3CFEFCFFC01918D4D
:1003A000828D981731F0828DE80FF11D858D90E0D8
:1003B00008958FEF9FEF0895FC01918D228D892F75
:1003C00090E0805C9F4F821B91098F73992708955D
:1003D0008BE191E00E94DC0121E0892B09F420E00F
:1003E000822F089580E090E0892B29F00E94E80197
:1003F00081110C9400000895FC01A48DA80FB92F61
:10040000B11DA35ABF4F2C91848D90E001968F733C
:100410009927848FA689B7892C93A089B1898C915B
:10042000837080648C93938D848D981306C00288AA
:10043000F389E02D80818F7D80830895EF92FF9274
:100440000F931F93CF93DF93EC0181E0888F9B8DF7
:100450008C8D98131AC0E889F989808185FF15C0B1
:100460009FB7F894EE89FF896083E889F9898081D4
:100470008370806480839FBF81E090E0DF91CF91A3
:100480001F910F91FF90EF900895F62E0B8D10E0C5
:100490000F5F1F4F0F731127E02E8C8D8E110CC034
:1004A0000FB607FCFACFE889F989808185FFF5CF7F
:1004B000CE010E94FC01F1CFEB8DEC0FFD2FF11D61
:1004C000E35AFF4FF0829FB7F8940B8FEA89FB89BC
:1004D00080818062CFCF682F8BE191E00C941E0267
:1004E000CF93DF93EC01888D8823B9F0AA89BB896B
:1004F000E889F9898C9185FD03C0808186FD0DC056
:100500000FB607FCF7CF8C9185FFF2CF808185FF76
:10051000EDCFCE010E94FC01E9CFDF91CF9108958C
:10052000209A289800000000000000000000000051
:10053000000000000000000000000000289A209841
:100540000895209A289800000000289A209808957D
:100550001F920F920FB60F9211242F933F938F93F8
:100560009F93AF93BF938091170190911801A09131
:100570001901B0911A013091120123E0230F2D3798
:1005800058F50196A11DB11D20931201809317010A
:1005900090931801A0931901B0931A01809113014F
:1005A00090911401A0911501B09116010196A11D21
:1005B000B11D8093130190931401A0931501B09382
:1005C0001601BF91AF919F918F913F912F910F9005
:1005D0000FBE0F901F90189526E8230F0296A11DBD
:1005E000B11DD2CF1F920F920FB60F9211242F93ED
:1005F0003F934F935F936F937F938F939F93AF93AB
:10060000BF93EF93FF938BE191E00E94FC01FF9178
:10061000EF91BF91AF919F918F917F916F915F917A
:100620004F913F912F910F900FBE0F901F901895F3
:100630001F920F920FB60F9211242F938F939F93B7
:10064000EF93FF93E0912B01F0912C018081E091D9
:100650003101F091320182FD1BC090818091340103
:100660008F5F8F7320913501821741F0E091340143
:10067000F0E0E55EFE4F958F80933401FF91EF919E
:100680009F918F912F910F900FBE0F901F901895F3
:100690008081F4CFCF93DF9300D000D01F92CDB7ED
:1006A000DEB7789484B5826084BD84B5816084BDF2
:1006B00085B5826085BD85B5816085BD80916E0000
:1006C000816080936E001092810080918100826031
:1006D000809381008091810081608093810080916E
:1006E00080008160809380008091B100846080935D
:1006F000B1008091B00081608093B00080917A0059
:10070000846080937A0080917A00826080937A007E
:1007100080917A00816080937A0080917A0080686D
:1007200080937A001092C100E0912B01F0912C018E
:1007300082E08083E0912701F09128011082E0910E
:100740002901F0912A0180E1808310923301E09128
:100750002F01F091300186E08083E0912D01F0912E
:100760002E01808180618083E0912D01F0912E0126
:10077000808188608083E0912D01F0912E0180813D
:1007800080688083E0912D01F0912E0180818F7D22
:100790008083E9E9F0E02491E5E8F0E084918823A2
:1007A00099F090E0880F991FFC01E859FF4FA5913F
:1007B000B491FC01EE58FF4F859194918FB7F89456
:1007C000EC91E22BEC938FBF80E00E948700289A87
:1007D000209A65E070E080E090E00E94F4002898A4
:1007E00064E170E080E090E00E94F400289A209894
:1007F00081E290E00E946B0203E210E0E0E0EE2E66
:10080000E0E0FE2E8BE191E00E94DC011816190653
:1008100074F48BE191E00E946201803709F453C0C7
:1008200084F48F3309F452C0803509F454C0E114C4
:10083000F10441F30E94E801882321F30E940000A3
:10084000E1CF823709F44FC0873789F78BE191E018
:100850000E94DC0118161906CCF761E070E0CE01A9
:1008600005960E9476018BE191E00E94DC010497DD
:10087000D4F364E070E0CE0101960E947601898095
:100880009A80AB80BC80CD800E94A10277E0D72EF9
:10089000C6FE23C00E94A102CC0CDA94D110F8CF7E
:1008A0000E94A10260E2D62EB7FE1AC00E94A102E9
:1008B000880C991CAA1CBB1CDA94D110F5CFC80176
:1008C0000197F1F703C081E00E9487008BE290E07E
:1008D0000E946B02ACCF80E0F7CF0E949002DCCF89
:1008E0000E949002E5CF8BE191E00E94DC01181696
:1008F0001906CCF761E070E0CE0105960E94760102
:10090000CD800E94A10247E0D42EC6FE30C00E94D6
:10091000A102CC0CDA94D110F8CF0E94900220E210
:1009200080E090E0DC01880F991FAA1FBB1F209A6E
:100930002898289A2098000000000000000033B199
:10094000189BFECF30FD8160215069F7F801319787
:10095000F1F789839A83AB83BC8344E050E0BE0106
:100960006F5F7F4F8BE191E00E94260160CF0E9474
:100970009002CFCFEBE1F1E01382128288EE93E098
:10098000A0E0B0E084839583A683B78384E091E000
:100990009183808385EC90E09587848784EC90E058
:1009A0009787868780EC90E0918B808B81EC90E03C
:1009B000938B828B82EC90E0958B848B86EC90E01D
:1009C000978B868B118E128E138E148E0895EE0FD8
:0E09D000FF1F0590F491E02D0994F894FFCFDD
:1009DE00000000001E02260153017002DC016201BC
:0209EE00CE0138
:00000001FF
