:100000006F10E00100000000200B0000240B000036
:1000100000000000000000000000000000000000E0
:1000200000000000000000000000000000000000D0
:10003000A808000000000000EE0F00000000000013
:10004000F00F0000F20F0000F40F0000F60F0000A8
:100050004A090000FA0F0000FC0F0000FE0F00002C
:100060000010000002100000041000000610000044
:10007000081000000A1000000C1000000E10000014
:1000800010100000121000001410000016100000E4
:10009000181000001A1000001C10000000000000E2
:1000A000511126C022C206C4828282441244A24058
:1000B000310182802A86014593F6150091C232955E
:1000C00085810606F5F9828000000000634E050276
:1000D00063C305042E86AA857D5515C285466378BF
:1000E000B6006356C00006068606E36CB6FE014500
:1000F00063E4C500918D558D85820582F5FA828075
:100100008682C93F2E8582823305A04063D70500D1
:10011000B305B040C1B7B305B0408682653F330533
:10012000A0408282868263C70500634905005D376F
:100130002E858282B305B040E35B05FE3305A04007
:10014000513F3305B04082820000B7170140054798
:1001500023A8E74023AAE7400100010001000100B5
:100160000100010001000100010001000100010087
:1001700023A8E74001000100010001000100010087
:100180000100010001000100010001000100010067
:100190000100010001000100010001000100010057
:1001A0000100010023AAE7408280B71701400547FC
:1001B00023A8E74023AAE740010001000100010055
:1001C0000100010001000100010001000100010027
:1001D0009D47010001000100010001000100010034
:1001E00001000100010001000100FD17FDF3B71738
:1001F0000140054723A8E74001000100010001007C
:1002000001000100010001000100010001000100E6
:1002100023AAE7408280EFF2BFE81C4193F5F50F77
:100220009C43829759B5EFF2BFE7130181FD2AC0C5
:10023000AE84213F02451304B10161989D471377B5
:1002400005042AC83EC069C70937824742450605EA
:10025000FD171375F50FE5F7CD3D930700023EC07E
:1002600063DC040ADD3582478604FD17EDFBB7F633
:1002700000E090468147814510C45CC4844A25460D
:10028000814685042685EF10D00B1306803E8146FB
:10029000EF10003C18445C442AC818C05CC02E8390
:1002A00081470147B7F600E0944602C636C42246AD
:1002B000B24610C454C41040544008444C4463EF48
:1002C000D5046394B600636BC504104454440840DD
:1002D00032C036C282464C40B382A64033B6560086
:1002E00092463385B640118DBE92B3B6F2001044EB
:1002F0002A973697544410C0968754C0E36467FA2F
:100300006315E300C246E3EFD2F81301810271BB2B
:10031000693D4245824725BF493DB1B708404C4041
:100320001044544432C036C28246B383A64033B62A
:1003300076009246B382930033B572008D8E918E13
:1003400036955DB7EFF2DFD5130141FDAA841304A2
:10035000F101E53B61989D4713F704043EC063013A
:100360000712E5338247860493F4F40FFD17EDF787
:100370002D3DB717014093060002814413850741C4
:10038000054718C1860423AAE740010001000100C7
:100390000100010001000100010001000100010055
:1003A000010018C123AAE74001000100010001007B
:1003B0000100010001000100010001000100010035
:1003C00003A68740058A83A587408589EDDD19C28C
:1003D00093E41400FD16D5F6B7F600E09046814789
:1003E000814510C45CC49C4A2546814685073E85EC
:1003F0003EC8EF1000751306803E8146EF10402581
:1004000018445C442ACA18C05CC02E838147014747
:10041000B7F600E0944602C636C42246B24610C47F
:1004200054C41040544008444C4463EDD5046394D4
:10043000B6006369C50410445444084032C036C253
:1004400082464C40B382A64033B65600924633856E
:10045000B640118DBE92B3B6F20010443A95338780
:10046000A600544410C0968754C0E36367FA63152E
:10047000E300D246E3EED2F826851301C10235B17E
:100480002D33CDB508404C401044544432C036C2E0
:100490008246B383A64033B6760092468D8E33866D
:1004A000C640C246B382D30033B5720032955DB701
:1004B000EFF21FBF85450145EF009070854501456E
:1004C000EF0050783714014085441545EF10C00106
:1004D00023289440232A94405145EF10E00023281C
:1004E0009440232A9440D1B6EFF29FBBB335A000CD
:1004F0000545EF00307555BEEFF29FBA3704002076
:10050000F16509461305040C93850520152A8545D8
:100510000545EF00F06A81450545EF00B072493F9F
:10052000930510021305040CFD3141B6EFF25FB7DD
:10053000B704002061111385040CC1206355A0028B
:100540001385040CC92862056185930700076305BC
:10055000F50663CCA7009307F0036301F506930744
:1005600000056303F506210189B693072007268459
:10057000630EF50493077007E317F5FE1305040CEB
:10058000AD28E35DA0FE0546930531001305040C7C
:1005900099241305040C95208D47E3DCA7FE114632
:1005A0004C001305040C052C92458881AD39930548
:1005B000B0021305040C39A005453D379305B00280
:1005C0001385040C893945B70145C5BF1305040CD3
:1005D0002D20E35DA0FE9305310005461305040CB4
:1005E000DD2A888185332AC211464C001305040C8C
:1005F000892095BF0145828082807D558280EFF2FF
:100600003FAA1C417111CC81DC43930531000546A2
:100610008297110159BCEFF2BFA871119305310007
:100620004105EF00905501E588811101BDBC7D5564
:10063000EDBFEFF2FFA62E85B285EF001044B5B4F2
:100640001377360093874180BA9703C307006CC1C4
:100650002300C50413770603930700039306006085
:100660006307F70093760602B336D000AA06098620
:100670000D8A7D168947014763E7C7000606938701
:1006800081803E961A22A1476306F300A547630ABC
:10069000F30001A00146EFF2BFA04105EF003034A6
:1006A00029B40566CDBF13F7F50FC54763EDE70025
:1006B00089679387C7C20A073E9793F705700C4373
:1006C000CD8F5CD5828093F6050C1306000CFD5788
:1006D000E399C6FE9306700CE3E5E6FE93F7F50397
:1006E00009671307C7C08A07BA979C4309671307AE
:1006F000C7C28A07BA9793F505709C43D1B713F721
:10070000F50FC54763EDE70089679387C7C20A07FE
:100710003E9793F705700C43CD8F1CD5828093F6DE
:10072000050C1306000CFD57E399C6FE9306700CEA
:10073000E3E5E6FE93F7F50309671307C7C08A07E9
:10074000BA979C4309671307C7C28A07BA9793F5FC
:1007500005709C43D1B7EFF2BF949307803E1CC550
:1007600089679387C7C71CC10CC92322050093055D
:10077000600C2A840D3F9305500C2285493758544C
:100780001C546314F700FD575CD4FD571CD85CD88B
:100790006FF0BF91EFF2DF90B74501409385058080
:1007A000138501824D3F6FF05F90EFF27F8F2A84B7
:1007B000EF00D05248C41C402285DC4B8297635A1C
:1007C0000500EF00B0515C441D8D1C44E365F5FE4F
:1007D0007D556FF09F8DEFF2BF8C6111AA840144AB
:1007E0002EC232C0630DC4002685C137634905009F
:1007F00092450246B387850088A30504D5B72285B4
:1008000021016FF09F8AEFF2BF895111014495C613
:10081000B684AA8701443E8532C42EC23EC07137D9
:10082000634D05009245630AB500224682473307AF
:10083000860008A30504E39084FE228531016FF051
:10084000DF86EFF2FF85F1206FF03F86EFF25F85E4
:1008500085476301F50219C589476303F502014520
:100860006FF0BF8411458545A92E3715014013054A
:100870000580FDB741458545A92637150140CDB70F
:10088000130500028545352E371501401305054037
:10089000C1BF03A5018183A5418182808280EFF2DF
:1008A0003F80C53F6FF07F809387018103A30700DE
:1008B00083A34700130713003335670098C3B306BB
:1008C0007500D4C3E13FB7F700E023A2070073002F
:1008D0002030EFF2EFFC37F400E023220400232065
:1008E000040023240400B707002003A5070A93058A
:1008F000803EEFF02FFE7D1508C8BD471CC07D5718
:10090000B7E700E02386E740056723A0E7106FF014
:10091000CFF9EFF2EFF8753F6FF02FF981470547F8
:100920006307E5008507058193F7F70FD5BF370704
:1009300000208E071307C700BA97DC4391C7EFF278
:100940002FF682976FF06FF68280611122C226C067
:100950000544A14422853928131504014181FD1461
:10096000753F0604E5F812448244210173002030EB
:1009700082808280B707014023AAA74082809C45DD
:10098000611122C226C013F7070113F3F70001C754
:10099000D8413363E30092211377F60F29C78323ED
:1009A0000500014713048002930480048546B39533
:1009B000E600B376B6006392D50293122700BD46D7
:1009C000B396560093C6F6FFB3F37600B312530006
:1009D000B3E37200639787064CC90507A146E31786
:1009E000D7FC232075001307F00F6378C704832317
:1009F0004500A14613048002930480040547B31206
:100A0000D700337756006394E2021397260001174C
:100A1000BD45B395E50093C5F5FFB3F375003317F6
:100A2000E300B363770063928702232A55008506AB
:100A30004147E395E6FC23227500124482442101DC
:100A40008280E39C97F80CC949BFE39297FE232864
:100A50005500F1BF0CC982804CC982803703014028
:100A6000032743009317350063D00702B707C0FF81
:100A7000F517F98F37070007D98FD9CD370700F061
:100A80007D17798DC98F49A8635D0500B707E0FF21
:100A9000ED17F98F37070007D98FBDCD0605058102
:100AA000D5B7B7073000931605013376F500C1823C
:100AB0006313F602370600F97D16B377C7000327E4
:100AC0004300798E2322C300A1C955811317450025
:100AD0003395E60045BF9317B50063D407029357DB
:100AE000050113F6F7008D47B397C70093C7F7FFCB
:100AF000F98F37070007D98F85C1135755011207A2
:100B0000C1BF558112053395A6009347F5FFF98FB4
:100B100037070007D98FBDF5370701405CC38280D6
:100B20007300203001A0EFF2AFD7371702405C43CB
:100B300091462A84B18B6385D700A146638DD70681
:100B4000B7376E01938707601CC0B7160240DC42BE
:100B5000918313F7F700B707002093870706BA972A
:100B60008C23DC42184093F5F50F93F707083355B3
:100B7000B70081E73A85EFF0EFD548C008C448C414
:100B8000B7170240DC43AD83FD8B13D737008A07CC
:100B9000F18BD98F93F637010D476373D700D117C7
:100BA000370700201307C704BA978C23EFF08FD2C2
:100BB00008C86FF08FCF5C43B777DC02938707C01C
:100BC00061B799C5371702401C4F5D8D08CF8280F1
:100BD000B7170240984F1345F5FF798D88CF828073
:100BE000EFF20FCC1629F577FD17F58FF621DA25F0
:100BF0002111D58F1EA95625FD779387379FF58F35
:100C0000D6212A842EC0D58F9625D58FB625D58F8F
:100C10005EA55E29C207C18393F7F7CF5D8F5AA9FE
:100C200048001137B7470140938707808245631218
:100C3000F406C2475A24139517003E9542070E0545
:100C400041873E958C41635807048605EFF08FC8B5
:100C5000930540062AC0EFF0EFC782479314450082
:100C6000930540063E85EFF0AFC95E24C207C187F9
:100C700063D507020E059305400613052503EFF023
:100C80006FC51D89C98CC204C18006A461016FF0C3
:100C9000CFC1B24745B78A0555BF12059305400637
:100CA00013052503EFF00FC33D89E9BF91C55E250C
:100CB0000967D98F5EA582805A25F977FD17F98FCC
:100CC000D5BF93F5F51F4EA182804A211375F51FFC
:100CD00082805E2989C593E787005EA98280C2076A
:100CE000C183DD9BC207C183CDBF0A216D8D333522
:100CF000A0008280B71702409843B706FFFC61113D
:100D00001367170098C3D8432166758FD8C39843DB
:100D1000B706F7FEFD16758F98C39843B706FCFF1C
:100D2000FD16758F98C3D843C176FD16758FD8C34D
:100D300037079F0098C702C002C2984FB70601400C
:100D40001367170098CFD842518FD8C29843C16615
:100D500037060200558F98C3B716024009679C42B8
:100D6000F18F3EC2824785073EC0924781E78247A6
:100D7000E397E7FEB71702409C431397E7006358D9
:100D8000070685473EC2124785476310F706B72717
:100D900002409843C176FD16719B98C39843136730
:100DA000170098C3B7170240D843D8C3D843758FEC
:100DB000D8C3D843C166558FD8C39843B70600013E
:100DC000558F98C3984393166700E3DD06FED8431A
:100DD000B7160240719BD8C3D84313672700D8C306
:100DE0002147DC42B18BE39EE7FE2101828002C2F3
:100DF00059BFEFF2EFAA311102C402C602C8FD5773
:100E00006313F50001A093D7854093F4F707937718
:100E1000F5001397270089679387C7D0BA979C433B
:100E200011813D892E843EC0EFF05FA22AC29DC091
:100E30008545054579339387F4FF6947636CF7006F
:100E400009678A07130707CABA979C4382878545B3
:100E50000545293193572440137734008D8B7DC786
:100E60003AC609476380E70E0D47638FE70C0547D5
:100E70006388E70CC1473EC8EDA08145D1BF8545D9
:100E8000370500100905F1B7854537054010DDBF6E
:100E90008145E5BF85453705008011055DBF854566
:100EA000370520807DB7854537052080FDB7814512
:100EB000E5BF3705160085451305050459BF85456F
:100EC000370516001305050869B78545370516006F
:100ED0001305050CBDBF8145D5BF370518008545F5
:100EE00013050510BDB73705180085451305052006
:100EF0008DB78545370518001305053099BF814525
:100F0000D5BF85452165B1B78145EDBF854537051D
:100F100020008DBF8145E5BF854537052000B5BF61
:100F20008145E5BF85453705200069BF8145E5BF9F
:100F30008545370530001305054021BF8145D5BFE4
:100F4000D14715BFE14705BFF14735B70547638373
:100F5000E70299C789466381D7029307800221BFC0
:100F600002C8824712452C007C84EFF05FA151013A
:100F70006FF0AF93914701B711840D8893078004F8
:100F8000E31DE4FCCDBDFD577D57631CF500828059
:100F90006398A700EFF2CF908C45A13D6FF0EF90E2
:100FA000B1059C41E396E7FE01A07D579C41639407
:100FB000E700014582806394A700C8418280B105A3
:100FC000F5B7FD576307F500EFF28F8DF93F6FF02E
:100FD000CF8D014582806305B50019C181E5AA85E1
:100FE0002E8582808145EDBF01A001A001A001A056
:100FF00001A001A001A001A001A001A001A001A0E9
:1010000001A001A001A001A001A001A001A001A0D8
:1010100001A001A001A001A001A001A001A09701D1
:10102000002093812188138101F617150000130514
:1010300025E297F5FF1F9385E5FC1386018163FA8E
:10104000C5008322050023A0550011059105E3EAA0
:10105000C5FE138501819385418F6377B5002320F9
:1010600005001105E36DB5FE930200087390023090
:101070008D427390428097F2FFFF9382A2F893E231
:10108000320073905230170500001305A548A529BA
:101090006D29EFF03FC69702000093828231739072
:1010A000123473002030EFE2BFFF1301C1FDAA84A8
:1010B000084D32C609662EC4930546BF3ACA36C8E3
:1010C00009372AD0C84C89669385C6BDDD3D2A8480
:1010D00088508965938545BCED352AC0C85089651F
:1010E0009385C5BAF93D0257096689662AC232CC92
:1010F00036CE6302070ED04CFD566304D600630C57
:10110000040C9050FD566305D60082476385070C9A
:10111000D050FD566305D6009247638E070A3A8584
:10112000A285553D824588C07D35924588C065358C
:1011300088C055C13747014013070780631BE5008E
:1011400085451165EFF0FFA713070002238604020F
:1011500098D4E247884C938547BF353511C4F24790
:10116000C84C9385C7BD05358247814681CB8850E1
:101170008965938545BC013D93060010924791CB4C
:10118000C850896593E606209385C5BA36C0E53B0D
:101190008246A24703C7C40288409CC4B2471316C4
:1011A0002700DEA4D247138781813297FEA4C2476D
:1011B0001386440010C33147C8C09EA8BAA8D6A859
:1011C00019E085453936C84093858400EFF05FA16A
:1011D000C8408545E13C130141026FE01FED11C598
:1011E000EFE21FECC9356FE05FEC8280EFE25FEB6E
:1011F000896783A707C209671307C7C28A07BA9717
:1012000080438965938545BF2285653B19CD3705A8
:101210000020F16593070507014781460146938544
:1012200005201305050780CFBD3D6FE01FE8EFE205
:101230003FE78347C5029305000213972700938772
:101240008181BA979C438843EFF03FAA133515007C
:101250006FE0BFE5EFE2DFE48347C50293050004DA
:101260001397270093878181BA979C438843EFF0B7
:10127000DFA7133515006FE05FE3EFE27FE2411176
:1012800037040020AA842EC2EFF0AFE093070407D2
:1012900083C7C7022AC41304040785E70347C402AF
:1012A000938781810A07BA979C43F1173EC09387C1
:1012B00081813EC68247C9EB02C2124541016FE0FF
:1012C000DFDE896783A707C209671307C7C28A07DA
:1012D000BA979C438966938546BF3E853EC0D5310B
:1012E000896679D923060402138781811C4391EF13
:1012F0008347C402850793F7F70F2306F402FDD74F
:10130000F5358347C402D9DB45BF0245938546BF07
:101310004D390346C4021387818193172600BA977B
:101320009C4389669C43E395A7FC2DDAD1BFEFF07F
:101330004FD6A247B307F5403335F500E39EA5F637
:101340001307703EE36AF7F6024529376DF19247BD
:10135000A6973EC4A247E382F4F60245E53D75FD3B
:101360008347C402324785048A07BA979C4383C5E2
:10137000F4FF8843EFF0FF94F1BF11E57D558280C3
:101380007D556FE09FD2EFE2BFD1AA842E84453510
:1013900065F983C7C4021397270093878181BA97A1
:1013A0009C438843EFF07F9208A00145D9BFEFE24C
:1013B0003FCFEFF00FC9EFF02F94EFF02F97F5BF6D
:1013C0009377F50F4547636AF70209678A071307A2
:1013D000C7C2BA979C43137505705D8DFD576302B4
:1013E000F506954763EEB704EFE29FCB89679387D5
:1013F000C7D28A05BE959C4182871377050C930658
:10140000000C6310D7041307700C636CF70293771A
:10141000F50309678A071307C7C0BA979C4375B7D6
:101420009145EFF01F9D6FE05FC88D45DDBFE14541
:10143000CDBF93058002F5B78145E5B79D45D5B78A
:1014400001A08280EFE2DFC51377F50FC547AE86B6
:1014500063E6E70489679387C7C20A073E97184384
:1014600013750570B367E50013D747003D8B094638
:1014700001456369E600370600200A0713060600E7
:10148000329708438545BD8BB397F50093950701C7
:10149000C181B1C2EFF00FDC6FE03FC11376050CE4
:1014A0009305000CFD57E311B6FC1306700CE36DB9
:1014B000E6FA9377F50309671307C7C08A07BA9757
:1014C0009C4309671307C7C28A07BA979C431375E1
:1014D0000570C98F51BFEFF02FD87DBFEFE25FBC21
:1014E000EFF0EFBB6FE07FBC11CDEFE27FBB2A8452
:1014F000EFF0EFBAAA84EFF08FBA058DE36D85FEA9
:101500006FE0BFBA8280AA858146014601454DA899
:101510005111971700009387A79322C21714000058
:10152000130404931D8C26C006C40984BE8419E4E8
:101530001244A240824431016FF08FC37D1493178F
:101540002400A6979C438297DDB7511122C29717BA
:1015500000009387678F171400001304E48E1D8C1E
:1015600026C006C40984814463968402EFF06FC0EC
:10157000971700009387478D171400001304448DBC
:101580001D8C0984814463928402A24012448244E7
:1015900031018280139724003E97184385040297F7
:1015A000971700009387478AC1B7139724003E9787
:1015B000184385040297971700009387E788E1B7DF
:1015C0009387C1819C43AA8399EF1387818623AEB9
:1015D000E18017F5FFFF1305E5A2BA8709C51C4195
:1015E00023A8F18EBA87D8437D437D556346E30433
:1015F000638D030203A3870863000304931227008B
:101600009A9223A0C2000325031005463316E60074
:10161000518D2320A31023A0D20889466397D300BD
:1016200083264310558E2322C310930617000A0702
:10163000D4C3BA978CC70145828097F7FFFF938781
:10164000679C91C7170500001305C5EC6DBD82802E
:10165000130141FD06D422D226D02A87AE8763919A
:101660000620B68432832A8463FEC50EC166AE822C
:101670006363D626B70600016367D6489355860193
:10168000E144970600009386266CAE969422B694A9
:1016900093060002858E99CAB397D700B35497007A
:1016A0003313D600B3E2F4003314D700935403018C
:1016B000A68516851AC216C0EFE09FA41243824287
:1016C0002AC693170301C183A68516851AC43EC096
:1016D000EFE05FA0AA852AC20245EFE0BF9D324736
:1016E0009357040192464207D98F224363FAA70019
:1016F0009A971387F6FF63E4670063ECA742BA8604
:10170000898FA6853E8536C61AC83EC4EFE05F9F26
:10171000A247A6852AC23E85EFE0DF9BAA85AA8460
:10172000024542044180EFE0FF989242B246C20275
:1017300033E48200637CA40042439387F4FF1A944D
:1017400063656400F9146363A400BE849397060183
:1017500033E597008146B685A25012548254130196
:10176000C102828011EA2EC22AC081450545EFE000
:101770007F96924702472A83C1666365D314B706F2
:1017800000016366D33813568301E14497060000D5
:101790009386865BB29683C2060013060002A69269
:1017A0003306564063120614131703014183B387AF
:1017B0006740935403013AC08546A6853E8536C8E6
:1017C0001AC63EC2EFE0DF9392472AC4A6853E8543
:1017D000EFE05F9082452AC2EFE0DF8D224793570A
:1017E000040132434207D98FC24663FBA700124669
:1017F0009A971307F6FF63E4670063EFA7323AC2D4
:10180000898FA6853E8536C81ACA3EC6EFE05F8F2F
:10181000B247A6852AC43E85EFE0DF8B8245AA84C5
:101820004204EFE03F89A2424180C246C20233E453
:101830008200637CA40052439387F4FF1A9463658B
:101840006400F9146363A400BE849247C20733E5C1
:101850009700B685A250125482541301C1028280AF
:1018600063E1D504C16563E7B604B705000163E829
:10187000B62893D586016143170500001305C54CB2
:101880002E950C219A95130300023303B340631D78
:10189000031063E2F628B337C70013C5170081466B
:1018A00019A081460145B685A250125482541301F5
:1018B000C10282809305F00F63F2D52693D586008E
:1018C00021435DBF9306F00F1A86E3F166EC1356D1
:1018D0008300A14465BD9306F00FB285E3F3C6DA39
:1018E00093558600A14471BB3313C300B3D6570090
:1018F00093540301B397C700B35257003314C70082
:1019000013170301B3E7F2004183A68536853EC273
:101910001AC83AC036C4EFE0AFFEA2462AC6A68572
:101920003685EFE02FFBAA852AC40245EFE08FF849
:1019300032469247A2464206C183D18F424363FB9F
:10194000A7009A971387F6FF63E3671E63F1A71E4C
:10195000F9169A973387A740A6853A8536CA1AC8DA
:101960003AC4EFE0EFF922472AC6A6853A85EFE0B0
:101970006FF6AA852AC40245EFE0CFF3B247308262
:101980002247C207D18F4243D24663FBA7009A97F2
:101990001306F7FF63E9671863F7A71879179A9793
:1019A000C206898FD98E11BD3355B600B396660035
:1019B000C98EB353B7003ACC3317660013D406016F
:1019C000B3D4B7003AC4B397670013970601B3E7DF
:1019D000F3004183A28526853EC01ACA36C83AC2A2
:1019E000EFE00FF22AC6A2852685EFE0AFEEAA85CA
:1019F000AA841245EFE00FECB2438247C246C2030D
:101A000013D6070133E6C30052436247637BA60047
:101A100036969385F4FF636AD6106378A610F9149E
:101A20003696098EA28532853ACC1ACA36CE32C88D
:101A3000EFE00FED4246A2852AC63285EFE08FE93E
:101A4000AA852A841245EFE0EFE6B2423080524385
:101A5000C20233E6C2006247637CA600F2469305E9
:101A6000F4FF3696636FD60A637DA60A791436961C
:101A7000C1669382F6FFA24693970401C18F33F4A7
:101A80005700098EB3F2560032C293D3070193D4A4
:101A9000060122859685EFE0EFE12AC0A685228522
:101AA000EFE04FE12A8496851E85EFE0AFE0AA8241
:101AB000A6851E85EFE00FE082461694C18236941B
:101AC00063745400C1663695935604013695924668
:101AD00063E3A6026385A6003E858146E9B34166BD
:101AE00082457D16B376C400C2066D8E331767003B
:101AF000B296E373D7FE1385F7FF81466DB393D596
:101B00000601414395BB93550601C1449DBE135642
:101B10000301C144A5B98146054571B3B6850143AA
:101B2000A1BB2E84B1B73287A5BDAE84DDBDBA8618
:101B300015B5F9169A97E9B61307E6FF3AC29A97D0
:101B4000C1B121112AC236C006CAAA8622C826C639
:101B5000328732C48147014501433386660093735F
:101B600017003304F50093D2F6010583B334660001
:101B70008607638503003385840032838606B3E7D6
:101B8000570061FFAA8789C52245EFE0AFD2AA9727
:101B9000024711C71245BA85EFE0CFD1AA97D240CC
:101BA0004244B2441A85BE85610182802300000050
:101BB0000038014018000000FFFFFFFF0000000098
:101BC0000000000012000000003801400B0000007F
:101BD000FFFFFFFF000000000000000026000000E3
:101BE0000038014018000000FFFFFFFF0000000068
:101BF0000000000025000000003801400B0000003C
:101C0000FFFFFFFF000000000000000001000000D7
:101C100000000000060000000C0000000D000000A5
:101C20000F000000100000000E0000000100000086
:101C3000020000001000000011000000120000006F
:101C40001300000014000000150000001600000042
:101C5000170000002000000021000000220000000A
:101C600023000000240000002500000026000000E2
:101C7000270000000000000000000000FE0500003A
:101C800032060000F4050000F8050000FA05000027
:101C900016060000FA050000D6070000060800003E
:101CA0004E0E00007A0E00007E0E0000880E00002E
:101CB000900E0000940E00009E0E0000A60E000084
:101CC000AE0E0000B20E0000BE0E0000CA0E0000F4
:101CD000D60E0000DA0E0000E60E0000F20E000044
:101CE000FE0E0000020F0000080F00000C0F0000A5
:101CF000140F0000180F0000200F0000240F000038
:101D00002C0F0000300F00003C0F0000010000000D
:101D100002000000040000000800000010000000A5
:101D2000200000004000000080000000201400009F
:101D30002A1400002E140000321400003814000091
:101D40003C14000000010202030303030404040422
:101D50000404040405050505050505050505050537
:101D60000505050506060606060606060606060617
:101D70000606060606060606060606060606060603
:101D800006060606070707070707070707070707E7
:101D900007070707070707070707070707070707D3
:101DA00007070707070707070707070707070707C3
:101DB00007070707070707070707070707070707B3
:101DC0000707070708080808080808080808080897
:101DD0000808080808080808080808080808080883
:101DE0000808080808080808080808080808080873
:101DF0000808080808080808080808080808080863
:101E00000808080808080808080808080808080852
:101E10000808080808080808080808080808080842
:101E20000808080808080808080808080808080832
:101E30000808080808080808080808080808080822
:041E4000080808087E
:081E44003A16000094070000AB
:101E4C000008014000100140001401401400000083
:101E5C00000000001400000000000000140000004E
:101E6C00000000001400000000000000140000003E
:101E7C00000000001400000000000000140000002E
:101E8C00000000001400000000000000020406081E
:101E9C0004080C10081018201020304020406080DE
:101EAC0001020304050607080102030405060708DE
:101EBC000000000000000000000000000000000016
:101ECC000000000000000000FFFFFFFFFFFFFFFF0E
:101EDC00FFFFFFFFFFFFFFFF0000000001000000FD
:101EEC00006CDC020607080900100020003000001E
:00000001FF
